{
  "address": "0x6512eAff83a9Dd72e6d1EeD66bB5e990163024aa",
  "abi": [
    {
      "anonymous": false,
      "inputs": [
        {
          "indexed": true,
          "internalType": "address",
          "name": "previousOwner",
          "type": "address"
        },
        {
          "indexed": true,
          "internalType": "address",
          "name": "newOwner",
          "type": "address"
        }
      ],
      "name": "OwnershipTransferred",
      "type": "event"
    },
    {
      "inputs": [],
      "name": "owner",
      "outputs": [
        {
          "internalType": "address",
          "name": "",
          "type": "address"
        }
      ],
      "stateMutability": "view",
      "type": "function"
    },
    {
      "inputs": [],
      "name": "renounceOwnership",
      "outputs": [],
      "stateMutability": "nonpayable",
      "type": "function"
    },
    {
      "inputs": [
        {
          "internalType": "address",
          "name": "dst",
          "type": "address"
        }
      ],
      "name": "retrieveBNB",
      "outputs": [
        {
          "internalType": "bool",
          "name": "success",
          "type": "bool"
        }
      ],
      "stateMutability": "nonpayable",
      "type": "function"
    },
    {
      "inputs": [
        {
          "internalType": "address",
          "name": "token",
          "type": "address"
        },
        {
          "internalType": "address",
          "name": "dst",
          "type": "address"
        },
        {
          "internalType": "uint256",
          "name": "amount",
          "type": "uint256"
        }
      ],
      "name": "retrieveERC20",
      "outputs": [],
      "stateMutability": "nonpayable",
      "type": "function"
    },
    {
      "inputs": [
        {
          "internalType": "address",
          "name": "newOwner",
          "type": "address"
        }
      ],
      "name": "transferOwnership",
      "outputs": [],
      "stateMutability": "nonpayable",
      "type": "function"
    }
  ],
  "transactionHash": "0x01969c24ad714e41bbb6214f76ac3c3209174dcf03ec57b933b3ac50f754db9a",
  "args": [],
  "numDeployments": 2,
  "solcInputHash": "e3ef863d9daf2c151a5e40dbd909c546",
  "bytecode": "0x608060405234801561001057600080fd5b5061001a3361001f565b61006f565b600080546001600160a01b038381166001600160a01b0319831681178455604051919092169283917f8be0079c531659141344cd1fd0a4f28419497f9722a3daafe3b4186f6b6457e09190a35050565b6105f58061007e6000396000f3fe608060405234801561001057600080fd5b50600436106100575760003560e01c8063715018a61461005c5780638da5cb5b14610066578063d63f459414610086578063e40b5be114610099578063f2fde38b146100bc575b600080fd5b6100646100cf565b005b6000546040516001600160a01b0390911681526020015b60405180910390f35b6100646100943660046104ff565b6100e3565b6100ac6100a736600461053b565b6102c1565b604051901515815260200161007d565b6100646100ca36600461053b565b6103c0565b6100d7610439565b6100e16000610493565b565b6100eb610439565b6001600160a01b0382166101465760405162461bcd60e51b815260206004820152601b60248201527f43616e6e6f742073656e6420746f207a65726f2061646472657373000000000060448201526064015b60405180910390fd5b6040516370a0823160e01b81523060048201526000906001600160a01b038516906370a0823190602401602060405180830381865afa15801561018d573d6000803e3d6000fd5b505050506040513d601f19601f820116820180604052508101906101b1919061055d565b905072b43413d3f2ed9b09dd88250fa5dd58e44ad122196001600160a01b0385160161024757692a5a058fc295ed0000006101ec8383610576565b116102475760405162461bcd60e51b815260206004820152602560248201527f43616e6e6f7420776974686472617720696e697469616c20636861726974792060448201526466756e647360d81b606482015260840161013d565b60405163a9059cbb60e01b81526001600160a01b0384811660048301526024820184905285169063a9059cbb906044016020604051808303816000875af1158015610296573d6000803e3d6000fd5b505050506040513d601f19601f820116820180604052508101906102ba919061059d565b5050505050565b60006102cb610439565b6001600160a01b0382166103215760405162461bcd60e51b815260206004820152601b60248201527f43616e6e6f742073656e6420746f207a65726f20616464726573730000000000604482015260640161013d565b60405147906001600160a01b038416908290600081818185875af1925050503d806000811461036c576040519150601f19603f3d011682016040523d82523d6000602084013e610371565b606091505b505080925050816103ba5760405162461bcd60e51b815260206004820152601360248201527221b7bab632103737ba103932ba3934b2bb329760691b604482015260640161013d565b50919050565b6103c8610439565b6001600160a01b03811661042d5760405162461bcd60e51b815260206004820152602660248201527f4f776e61626c653a206e6577206f776e657220697320746865207a65726f206160448201526564647265737360d01b606482015260840161013d565b61043681610493565b50565b6000546001600160a01b031633146100e15760405162461bcd60e51b815260206004820181905260248201527f4f776e61626c653a2063616c6c6572206973206e6f7420746865206f776e6572604482015260640161013d565b600080546001600160a01b038381166001600160a01b0319831681178455604051919092169283917f8be0079c531659141344cd1fd0a4f28419497f9722a3daafe3b4186f6b6457e09190a35050565b80356001600160a01b03811681146104fa57600080fd5b919050565b60008060006060848603121561051457600080fd5b61051d846104e3565b925061052b602085016104e3565b9150604084013590509250925092565b60006020828403121561054d57600080fd5b610556826104e3565b9392505050565b60006020828403121561056f57600080fd5b5051919050565b8181038181111561059757634e487b7160e01b600052601160045260246000fd5b92915050565b6000602082840312156105af57600080fd5b8151801515811461055657600080fdfea2646970667358221220b0492b3dde26efc6bde824123d159f3c5ff896c52af62e604d8f5c2b6c526c8464736f6c63430008120033",
  "devdoc": {
    "kind": "dev",
    "methods": {
      "owner()": {
        "details": "Returns the address of the current owner."
      },
      "renounceOwnership()": {
        "details": "Leaves the contract without owner. It will not be possible to call `onlyOwner` functions anymore. Can only be called by the current owner. NOTE: Renouncing ownership will leave the contract without an owner, thereby removing any functionality that is only available to the owner."
      },
      "retrieveBNB(address)": {
        "details": "This function can only be called by the owner of the contract",
        "params": {
          "dst": "The address to send the BNB to"
        },
        "returns": {
          "success": "A boolean indicating whether the operation was successful"
        }
      },
      "retrieveERC20(address,address,uint256)": {
        "details": "This function can only be called by the owner of the contract It throws if trying to withdraw to the zero address or if trying to withdraw Prisma Tokens such that the Prisma Token balance is lower than 200_000 after the withdrawal",
        "params": {
          "amount": "The amount of tokens to send",
          "dst": "The address to send the tokens to",
          "token": "The address of the ERC20 token to retrieve"
        }
      },
      "transferOwnership(address)": {
        "details": "Transfers ownership of the contract to a new account (`newOwner`). Can only be called by the current owner."
      }
    },
    "stateVariables": {
      "_prismaProxy": {
        "details": "Points at the Prisma Token Proxy"
      }
    },
    "version": 1
  },
  "userdoc": {
    "kind": "user",
    "methods": {
      "retrieveBNB(address)": {
        "notice": "Retrieves all BNB from this contract and sends them to another address"
      },
      "retrieveERC20(address,address,uint256)": {
        "notice": "Retrieves ERC20 tokens from this contract and sends them to another address Ensures that the 200,000 tokens initially allocated to the charity cannot be withdrawn"
      }
    },
    "version": 1
  },
  "storageLayout": {
    "storage": [
      {
        "astId": 1349,
        "contract": "contracts/PrismaCharity.sol:PrismaCharity",
        "label": "_owner",
        "offset": 0,
        "slot": "0",
        "type": "t_address"
      }
    ],
    "types": {
      "t_address": {
        "encoding": "inplace",
        "label": "address",
        "numberOfBytes": "20"
      }
    }
  }
}