{
  "address": "0x06E9fa9eBb98EF60C01bd54A2768bF2e99DAA673",
  "abi": [
    {
      "anonymous": false,
      "inputs": [
        {
          "indexed": true,
          "internalType": "address",
          "name": "previousOwner",
          "type": "address"
        },
        {
          "indexed": true,
          "internalType": "address",
          "name": "newOwner",
          "type": "address"
        }
      ],
      "name": "OwnershipTransferred",
      "type": "event"
    },
    {
      "inputs": [],
      "name": "owner",
      "outputs": [
        {
          "internalType": "address",
          "name": "",
          "type": "address"
        }
      ],
      "stateMutability": "view",
      "type": "function"
    },
    {
      "inputs": [],
      "name": "renounceOwnership",
      "outputs": [],
      "stateMutability": "nonpayable",
      "type": "function"
    },
    {
      "inputs": [
        {
          "internalType": "address",
          "name": "dst",
          "type": "address"
        }
      ],
      "name": "retrieveBNB",
      "outputs": [
        {
          "internalType": "bool",
          "name": "success",
          "type": "bool"
        }
      ],
      "stateMutability": "nonpayable",
      "type": "function"
    },
    {
      "inputs": [
        {
          "internalType": "address",
          "name": "token",
          "type": "address"
        },
        {
          "internalType": "address",
          "name": "dst",
          "type": "address"
        },
        {
          "internalType": "uint256",
          "name": "amount",
          "type": "uint256"
        }
      ],
      "name": "retrieveERC20",
      "outputs": [],
      "stateMutability": "nonpayable",
      "type": "function"
    },
    {
      "inputs": [
        {
          "internalType": "address",
          "name": "newOwner",
          "type": "address"
        }
      ],
      "name": "transferOwnership",
      "outputs": [],
      "stateMutability": "nonpayable",
      "type": "function"
    }
  ],
  "transactionHash": "0xc845bf8fea4e0c607b18b9e91ce84856d9cad9efddd838f4fb22619576a4e977",
  "args": [],
  "numDeployments": 1,
  "solcInputHash": "bc7bf517d4532c3da7c15a00dbdc9bf3",
  "bytecode": "0x6080604052600180546001600160a01b03191673b7ed90f0be22c7942133404474c7c41199c08a2d17905534801561003657600080fd5b5061004033610045565b610095565b600080546001600160a01b038381166001600160a01b0319831681178455604051919092169283917f8be0079c531659141344cd1fd0a4f28419497f9722a3daafe3b4186f6b6457e09190a35050565b6104eb806100a46000396000f3fe608060405234801561001057600080fd5b50600436106100575760003560e01c8063715018a61461005c5780638da5cb5b14610066578063d63f459414610086578063e40b5be114610099578063f2fde38b146100bc575b600080fd5b6100646100cf565b005b6000546040516001600160a01b0390911681526020015b60405180910390f35b6100646100943660046103f5565b6100e3565b6100ac6100a7366004610431565b610209565b604051901515815260200161007d565b6100646100ca366004610431565b6102b6565b6100d761032f565b6100e16000610389565b565b6100eb61032f565b6040516370a0823160e01b81523060048201526000906001600160a01b038516906370a0823190602401602060405180830381865afa158015610132573d6000803e3d6000fd5b505050506040513d601f19601f820116820180604052508101906101569190610453565b6001549091506001600160a01b039081169085160361018f576a01a784379d99db42000000610185838361046c565b1161018f57600080fd5b60405163a9059cbb60e01b81526001600160a01b0384811660048301526024820184905285169063a9059cbb906044016020604051808303816000875af11580156101de573d6000803e3d6000fd5b505050506040513d601f19601f820116820180604052508101906102029190610493565b5050505050565b600061021361032f565b60405147906001600160a01b038416908290600081818185875af1925050503d806000811461025e576040519150601f19603f3d011682016040523d82523d6000602084013e610263565b606091505b505080925050816102b05760405162461bcd60e51b8152602060048201526012602482015271436f756c64206e6f7420726574726965766560701b60448201526064015b60405180910390fd5b50919050565b6102be61032f565b6001600160a01b0381166103235760405162461bcd60e51b815260206004820152602660248201527f4f776e61626c653a206e6577206f776e657220697320746865207a65726f206160448201526564647265737360d01b60648201526084016102a7565b61032c81610389565b50565b6000546001600160a01b031633146100e15760405162461bcd60e51b815260206004820181905260248201527f4f776e61626c653a2063616c6c6572206973206e6f7420746865206f776e657260448201526064016102a7565b600080546001600160a01b038381166001600160a01b0319831681178455604051919092169283917f8be0079c531659141344cd1fd0a4f28419497f9722a3daafe3b4186f6b6457e09190a35050565b80356001600160a01b03811681146103f057600080fd5b919050565b60008060006060848603121561040a57600080fd5b610413846103d9565b9250610421602085016103d9565b9150604084013590509250925092565b60006020828403121561044357600080fd5b61044c826103d9565b9392505050565b60006020828403121561046557600080fd5b5051919050565b8181038181111561048d57634e487b7160e01b600052601160045260246000fd5b92915050565b6000602082840312156104a557600080fd5b8151801515811461044c57600080fdfea26469706673582212206875b0e36e3a02274b90fc4e4d19561ab083497beddc58de8f58a618d3f28fde64736f6c63430008110033",
  "devdoc": {
    "kind": "dev",
    "methods": {
      "owner()": {
        "details": "Returns the address of the current owner."
      },
      "renounceOwnership()": {
        "details": "Leaves the contract without owner. It will not be possible to call `onlyOwner` functions anymore. Can only be called by the current owner. NOTE: Renouncing ownership will leave the contract without an owner, thereby removing any functionality that is only available to the owner."
      },
      "transferOwnership(address)": {
        "details": "Transfers ownership of the contract to a new account (`newOwner`). Can only be called by the current owner."
      }
    },
    "version": 1
  },
  "userdoc": {
    "kind": "user",
    "methods": {},
    "version": 1
  },
  "storageLayout": {
    "storage": [
      {
        "astId": 7,
        "contract": "contracts/PrismaCharity.sol:PrismaCharity",
        "label": "_owner",
        "offset": 0,
        "slot": "0",
        "type": "t_address"
      },
      {
        "astId": 224,
        "contract": "contracts/PrismaCharity.sol:PrismaCharity",
        "label": "prismaProxy",
        "offset": 0,
        "slot": "1",
        "type": "t_address"
      }
    ],
    "types": {
      "t_address": {
        "encoding": "inplace",
        "label": "address",
        "numberOfBytes": "20"
      }
    }
  }
}